{
  "contractName": "Account",
  "abi": [
    {
      "inputs": [
        {
          "internalType": "bytes32",
          "name": "_nonce",
          "type": "bytes32"
        },
        {
          "internalType": "string",
          "name": "_name",
          "type": "string"
        },
        {
          "internalType": "address",
          "name": "_owner",
          "type": "address"
        }
      ],
      "stateMutability": "nonpayable",
      "type": "constructor"
    },
    {
      "inputs": [],
      "name": "getNonce",
      "outputs": [
        {
          "internalType": "bytes32",
          "name": "",
          "type": "bytes32"
        }
      ],
      "stateMutability": "view",
      "type": "function"
    },
    {
      "inputs": [
        {
          "internalType": "bytes32",
          "name": "h",
          "type": "bytes32"
        },
        {
          "internalType": "uint8",
          "name": "v",
          "type": "uint8"
        },
        {
          "internalType": "bytes32",
          "name": "r",
          "type": "bytes32"
        },
        {
          "internalType": "bytes32",
          "name": "s",
          "type": "bytes32"
        }
      ],
      "name": "verify",
      "outputs": [
        {
          "internalType": "bool",
          "name": "",
          "type": "bool"
        }
      ],
      "stateMutability": "view",
      "type": "function"
    }
  ],
  "bytecode": "0x608060405234801561001057600080fd5b5060405161072e38038061072e8339818101604052810190610032919061034e565b82600081905550816001908051906020019061004f929190610099565b5080600260006101000a81548173ffffffffffffffffffffffffffffffffffffffff021916908373ffffffffffffffffffffffffffffffffffffffff16021790555050505061041d565b8280546100a5906103ec565b90600052602060002090601f0160209004810192826100c7576000855561010e565b82601f106100e057805160ff191683800117855561010e565b8280016001018555821561010e579182015b8281111561010d5782518255916020019190600101906100f2565b5b50905061011b919061011f565b5090565b5b80821115610138576000816000905550600101610120565b5090565b6000604051905090565b600080fd5b600080fd5b6000819050919050565b61016381610150565b811461016e57600080fd5b50565b6000815190506101808161015a565b92915050565b600080fd5b600080fd5b6000601f19601f8301169050919050565b7f4e487b7100000000000000000000000000000000000000000000000000000000600052604160045260246000fd5b6101d982610190565b810181811067ffffffffffffffff821117156101f8576101f76101a1565b5b80604052505050565b600061020b61013c565b905061021782826101d0565b919050565b600067ffffffffffffffff821115610237576102366101a1565b5b61024082610190565b9050602081019050919050565b60005b8381101561026b578082015181840152602081019050610250565b8381111561027a576000848401525b50505050565b600061029361028e8461021c565b610201565b9050828152602081018484840111156102af576102ae61018b565b5b6102ba84828561024d565b509392505050565b600082601f8301126102d7576102d6610186565b5b81516102e7848260208601610280565b91505092915050565b600073ffffffffffffffffffffffffffffffffffffffff82169050919050565b600061031b826102f0565b9050919050565b61032b81610310565b811461033657600080fd5b50565b60008151905061034881610322565b92915050565b60008060006060848603121561036757610366610146565b5b600061037586828701610171565b935050602084015167ffffffffffffffff8111156103965761039561014b565b5b6103a2868287016102c2565b92505060406103b386828701610339565b9150509250925092565b7f4e487b7100000000000000000000000000000000000000000000000000000000600052602260045260246000fd5b6000600282049050600182168061040457607f821691505b602082108103610417576104166103bd565b5b50919050565b6103028061042c6000396000f3fe608060405234801561001057600080fd5b50600436106100365760003560e01c8063d087d2881461003b578063f1835db714610059575b600080fd5b610043610089565b6040516100509190610156565b60405180910390f35b610073600480360381019061006e91906101db565b610092565b604051610080919061025d565b60405180910390f35b60008054905090565b6000600260009054906101000a900473ffffffffffffffffffffffffffffffffffffffff1673ffffffffffffffffffffffffffffffffffffffff16600186868686604051600081526020016040526040516100f09493929190610287565b6020604051602081039080840390855afa158015610112573d6000803e3d6000fd5b5050506020604051035173ffffffffffffffffffffffffffffffffffffffff16149050949350505050565b6000819050919050565b6101508161013d565b82525050565b600060208201905061016b6000830184610147565b92915050565b600080fd5b61017f8161013d565b811461018a57600080fd5b50565b60008135905061019c81610176565b92915050565b600060ff82169050919050565b6101b8816101a2565b81146101c357600080fd5b50565b6000813590506101d5816101af565b92915050565b600080600080608085870312156101f5576101f4610171565b5b60006102038782880161018d565b9450506020610214878288016101c6565b93505060406102258782880161018d565b92505060606102368782880161018d565b91505092959194509250565b60008115159050919050565b61025781610242565b82525050565b6000602082019050610272600083018461024e565b92915050565b610281816101a2565b82525050565b600060808201905061029c6000830187610147565b6102a96020830186610278565b6102b66040830185610147565b6102c36060830184610147565b9594505050505056fea2646970667358221220bef386a670446b90d5bce366c81d49af03fa2fb02b5c7da35ff0953d5d25f4be64736f6c634300080d0033",
  "immutableReferences": {},
  "source": "// SPDX-License-Identifier: MIT\npragma solidity >=0.4.22 <0.9.0;\n\ncontract Account {\n  bytes32 nonce;\n  string username;\n  address owner;\n\n  constructor(bytes32 _nonce, string memory _name, address _owner) {\n    nonce = _nonce;\n    username = _name;\n    owner = _owner;\n  }\n\n  function getNonce() public view returns (bytes32) {\n    // Login - Step 2: get msg.sender's Account nounce\n    return nonce;\n  }\n\n  function verify(\n      bytes32 h, uint8 v, bytes32 r, bytes32 s\n    ) public view returns(bool) {\n    // Login - Step 3: send hash to verify and complete login\n    return ecrecover(h, v, r, s) == owner;\n  }\n  \n}\n",
  "sourcePath": "C:\\Users\\PIYUSH\\Desktop\\final year project\\something\\backend\\contracts\\Account.sol",
  "compiler": {
    "name": "solc",
    "version": "0.8.13+commit.abaa5c0e.Emscripten.clang"
  },
  "schemaVersion": "3.4.6",
  "updatedAt": "2022-04-06T13:03:33.858Z",
  "devdoc": {
    "kind": "dev",
    "methods": {},
    "version": 1
  },
  "userdoc": {
    "kind": "user",
    "methods": {},
    "version": 1
  }
}