{
  "contractName": "Auth",
  "abi": [
    {
      "inputs": [
        {
          "internalType": "bytes32",
          "name": "nounce",
          "type": "bytes32"
        },
        {
          "internalType": "string",
          "name": "name",
          "type": "string"
        }
      ],
      "name": "signUp",
      "outputs": [
        {
          "internalType": "address",
          "name": "",
          "type": "address"
        }
      ],
      "stateMutability": "nonpayable",
      "type": "function"
    },
    {
      "inputs": [],
      "name": "getAccountAddress",
      "outputs": [
        {
          "internalType": "address",
          "name": "",
          "type": "address"
        }
      ],
      "stateMutability": "view",
      "type": "function",
      "constant": true
    },
    {
      "inputs": [
        {
          "internalType": "bytes32",
          "name": "h",
          "type": "bytes32"
        },
        {
          "internalType": "uint8",
          "name": "v",
          "type": "uint8"
        },
        {
          "internalType": "bytes32",
          "name": "r",
          "type": "bytes32"
        },
        {
          "internalType": "bytes32",
          "name": "s",
          "type": "bytes32"
        }
      ],
      "name": "verify",
      "outputs": [
        {
          "internalType": "address",
          "name": "",
          "type": "address"
        }
      ],
      "stateMutability": "pure",
      "type": "function",
      "constant": true
    }
  ],
  "bytecode": "0x60806040526000805534801561001457600080fd5b50610f8c806100246000396000f3fe60806040523480156200001157600080fd5b5060043610620000465760003560e01c80630e2562d9146200004b5780635d4c3f87146200006d578063f1835db714620000a3575b600080fd5b62000055620000d9565b6040516200006491906200038c565b60405180910390f35b6200008b60048036038101906200008591906200055a565b62000140565b6040516200009a91906200038c565b60405180910390f35b620000c16004803603810190620000bb9190620005fe565b620002db565b604051620000d091906200038c565b60405180910390f35b6000600160003373ffffffffffffffffffffffffffffffffffffffff1673ffffffffffffffffffffffffffffffffffffffff16815260200190815260200160002060009054906101000a900473ffffffffffffffffffffffffffffffffffffffff16905090565b60008073ffffffffffffffffffffffffffffffffffffffff16600160003373ffffffffffffffffffffffffffffffffffffffff1673ffffffffffffffffffffffffffffffffffffffff16815260200190815260200160002060009054906101000a900473ffffffffffffffffffffffffffffffffffffffff1673ffffffffffffffffffffffffffffffffffffffff161462000212576040517f08c379a00000000000000000000000000000000000000000000000000000000081526004016200020990620006d1565b60405180910390fd5b6000838333604051620002259062000339565b620002339392919062000786565b604051809103906000f08015801562000250573d6000803e3d6000fd5b50905080600160003373ffffffffffffffffffffffffffffffffffffffff1673ffffffffffffffffffffffffffffffffffffffff16815260200190815260200160002060006101000a81548173ffffffffffffffffffffffffffffffffffffffff021916908373ffffffffffffffffffffffffffffffffffffffff1602179055508091505092915050565b600060018585858560405160008152602001604052604051620003029493929190620007db565b6020604051602081039080840390855afa15801562000325573d6000803e3d6000fd5b505050602060405103519050949350505050565b61072e806200082983390190565b600073ffffffffffffffffffffffffffffffffffffffff82169050919050565b6000620003748262000347565b9050919050565b620003868162000367565b82525050565b6000602082019050620003a360008301846200037b565b92915050565b6000604051905090565b600080fd5b600080fd5b6000819050919050565b620003d281620003bd565b8114620003de57600080fd5b50565b600081359050620003f281620003c7565b92915050565b600080fd5b600080fd5b6000601f19601f8301169050919050565b7f4e487b7100000000000000000000000000000000000000000000000000000000600052604160045260246000fd5b6200044d8262000402565b810181811067ffffffffffffffff821117156200046f576200046e62000413565b5b80604052505050565b600062000484620003a9565b905062000492828262000442565b919050565b600067ffffffffffffffff821115620004b557620004b462000413565b5b620004c08262000402565b9050602081019050919050565b82818337600083830152505050565b6000620004f3620004ed8462000497565b62000478565b905082815260208101848484011115620005125762000511620003fd565b5b6200051f848285620004cd565b509392505050565b600082601f8301126200053f576200053e620003f8565b5b813562000551848260208601620004dc565b91505092915050565b60008060408385031215620005745762000573620003b3565b5b60006200058485828601620003e1565b925050602083013567ffffffffffffffff811115620005a857620005a7620003b8565b5b620005b68582860162000527565b9150509250929050565b600060ff82169050919050565b620005d881620005c0565b8114620005e457600080fd5b50565b600081359050620005f881620005cd565b92915050565b600080600080608085870312156200061b576200061a620003b3565b5b60006200062b87828801620003e1565b94505060206200063e87828801620005e7565b93505060406200065187828801620003e1565b92505060606200066487828801620003e1565b91505092959194509250565b600082825260208201905092915050565b7f416e206163636f756e7420616c7265616479206578697374732e000000000000600082015250565b6000620006b9601a8362000670565b9150620006c68262000681565b602082019050919050565b60006020820190508181036000830152620006ec81620006aa565b9050919050565b620006fe81620003bd565b82525050565b600081519050919050565b60005b838110156200072f57808201518184015260208101905062000712565b838111156200073f576000848401525b50505050565b6000620007528262000704565b6200075e818562000670565b9350620007708185602086016200070f565b6200077b8162000402565b840191505092915050565b60006060820190506200079d6000830186620006f3565b8181036020830152620007b1818562000745565b9050620007c260408301846200037b565b949350505050565b620007d581620005c0565b82525050565b6000608082019050620007f26000830187620006f3565b620008016020830186620007ca565b620008106040830185620006f3565b6200081f6060830184620006f3565b9594505050505056fe608060405234801561001057600080fd5b5060405161072e38038061072e8339818101604052810190610032919061034e565b82600081905550816001908051906020019061004f929190610099565b5080600260006101000a81548173ffffffffffffffffffffffffffffffffffffffff021916908373ffffffffffffffffffffffffffffffffffffffff16021790555050505061041d565b8280546100a5906103ec565b90600052602060002090601f0160209004810192826100c7576000855561010e565b82601f106100e057805160ff191683800117855561010e565b8280016001018555821561010e579182015b8281111561010d5782518255916020019190600101906100f2565b5b50905061011b919061011f565b5090565b5b80821115610138576000816000905550600101610120565b5090565b6000604051905090565b600080fd5b600080fd5b6000819050919050565b61016381610150565b811461016e57600080fd5b50565b6000815190506101808161015a565b92915050565b600080fd5b600080fd5b6000601f19601f8301169050919050565b7f4e487b7100000000000000000000000000000000000000000000000000000000600052604160045260246000fd5b6101d982610190565b810181811067ffffffffffffffff821117156101f8576101f76101a1565b5b80604052505050565b600061020b61013c565b905061021782826101d0565b919050565b600067ffffffffffffffff821115610237576102366101a1565b5b61024082610190565b9050602081019050919050565b60005b8381101561026b578082015181840152602081019050610250565b8381111561027a576000848401525b50505050565b600061029361028e8461021c565b610201565b9050828152602081018484840111156102af576102ae61018b565b5b6102ba84828561024d565b509392505050565b600082601f8301126102d7576102d6610186565b5b81516102e7848260208601610280565b91505092915050565b600073ffffffffffffffffffffffffffffffffffffffff82169050919050565b600061031b826102f0565b9050919050565b61032b81610310565b811461033657600080fd5b50565b60008151905061034881610322565b92915050565b60008060006060848603121561036757610366610146565b5b600061037586828701610171565b935050602084015167ffffffffffffffff8111156103965761039561014b565b5b6103a2868287016102c2565b92505060406103b386828701610339565b9150509250925092565b7f4e487b7100000000000000000000000000000000000000000000000000000000600052602260045260246000fd5b6000600282049050600182168061040457607f821691505b602082108103610417576104166103bd565b5b50919050565b6103028061042c6000396000f3fe608060405234801561001057600080fd5b50600436106100365760003560e01c8063d087d2881461003b578063f1835db714610059575b600080fd5b610043610089565b6040516100509190610156565b60405180910390f35b610073600480360381019061006e91906101db565b610092565b604051610080919061025d565b60405180910390f35b60008054905090565b6000600260009054906101000a900473ffffffffffffffffffffffffffffffffffffffff1673ffffffffffffffffffffffffffffffffffffffff16600186868686604051600081526020016040526040516100f09493929190610287565b6020604051602081039080840390855afa158015610112573d6000803e3d6000fd5b5050506020604051035173ffffffffffffffffffffffffffffffffffffffff16149050949350505050565b6000819050919050565b6101508161013d565b82525050565b600060208201905061016b6000830184610147565b92915050565b600080fd5b61017f8161013d565b811461018a57600080fd5b50565b60008135905061019c81610176565b92915050565b600060ff82169050919050565b6101b8816101a2565b81146101c357600080fd5b50565b6000813590506101d5816101af565b92915050565b600080600080608085870312156101f5576101f4610171565b5b60006102038782880161018d565b9450506020610214878288016101c6565b93505060406102258782880161018d565b92505060606102368782880161018d565b91505092959194509250565b60008115159050919050565b61025781610242565b82525050565b6000602082019050610272600083018461024e565b92915050565b610281816101a2565b82525050565b600060808201905061029c6000830187610147565b6102a96020830186610278565b6102b66040830185610147565b6102c36060830184610147565b9594505050505056fea2646970667358221220bef386a670446b90d5bce366c81d49af03fa2fb02b5c7da35ff0953d5d25f4be64736f6c634300080d0033a2646970667358221220d59af5247efb5938a82680228509d8f9baa65880e3467ab2f630a7b084c8bf2b64736f6c634300080d0033",
  "immutableReferences": {},
  "source": "// SPDX-License-Identifier: MIT\npragma solidity >=0.4.22 <0.9.0;\n\nimport './Account.sol';\n\ncontract Auth {\n  uint256 usersCount = 0;\n  mapping(address => address) users;\n\n  function signUp(bytes32 nounce, string memory name) public returns(address) {\n    require(users[msg.sender] == address(0), 'An account already exists.');\n    Account newAccount = new Account(nounce, name, msg.sender);\n    users[msg.sender] = address(newAccount);\n    return address(newAccount);\n  }\n\n  function getAccountAddress () public view returns (address) {\n    // Login - Step 1: get Contract Account's address || address(0)\n    return users[msg.sender];\n  }\n\n  function verify(bytes32 h, uint8 v, bytes32 r, bytes32 s) public pure returns (address) {\n    return ecrecover(h, v, r, s);\n  }\n}\n\n",
  "sourcePath": "C:\\Users\\PIYUSH\\Desktop\\final year project\\something\\server\\truffle\\contracts\\Auth.sol",
  "compiler": {
    "name": "solc",
    "version": "0.8.13+commit.abaa5c0e.Emscripten.clang"
  },
  "schemaVersion": "3.4.6",
  "updatedAt": "2022-06-29T17:29:55.326Z",
  "networkType": "ethereum",
  "devdoc": {
    "kind": "dev",
    "methods": {},
    "version": 1
  },
  "userdoc": {
    "kind": "user",
    "methods": {},
    "version": 1
  }
}