{
  "contractName": "Election",
  "abi": [
    {
      "inputs": [
        {
          "internalType": "address",
          "name": "_owner",
          "type": "address"
        }
      ],
      "stateMutability": "nonpayable",
      "type": "constructor"
    },
    {
      "inputs": [],
      "name": "owner",
      "outputs": [
        {
          "internalType": "address",
          "name": "",
          "type": "address"
        }
      ],
      "stateMutability": "view",
      "type": "function"
    },
    {
      "inputs": [],
      "name": "getOwner",
      "outputs": [
        {
          "internalType": "address",
          "name": "",
          "type": "address"
        }
      ],
      "stateMutability": "view",
      "type": "function"
    },
    {
      "inputs": [],
      "name": "closeElection",
      "outputs": [],
      "stateMutability": "nonpayable",
      "type": "function"
    },
    {
      "inputs": [
        {
          "internalType": "int32",
          "name": "voter",
          "type": "int32"
        },
        {
          "internalType": "int32",
          "name": "option",
          "type": "int32"
        }
      ],
      "name": "vote",
      "outputs": [],
      "stateMutability": "nonpayable",
      "type": "function"
    }
  ],
  "bytecode": "0x60806040526001600260006101000a81548160ff02191690831515021790555034801561002b57600080fd5b506040516103f63803806103f6833981810160405281019061004d91906100f6565b806000806101000a81548173ffffffffffffffffffffffffffffffffffffffff021916908373ffffffffffffffffffffffffffffffffffffffff16021790555050610123565b600080fd5b600073ffffffffffffffffffffffffffffffffffffffff82169050919050565b60006100c382610098565b9050919050565b6100d3816100b8565b81146100de57600080fd5b50565b6000815190506100f0816100ca565b92915050565b60006020828403121561010c5761010b610093565b5b600061011a848285016100e1565b91505092915050565b6102c4806101326000396000f3fe608060405234801561001057600080fd5b506004361061004c5760003560e01c80636c6c32d014610051578063893d20e81461005b5780638da5cb5b14610079578063cb25a01314610097575b600080fd5b6100596100b3565b005b610063610128565b60405161007091906101f5565b60405180910390f35b610081610151565b60405161008e91906101f5565b60405180910390f35b6100b160048036038101906100ac919061024e565b610175565b005b3373ffffffffffffffffffffffffffffffffffffffff1660008054906101000a900473ffffffffffffffffffffffffffffffffffffffff1673ffffffffffffffffffffffffffffffffffffffff161461010b57600080fd5b6000600260006101000a81548160ff021916908315150217905550565b60008060009054906101000a900473ffffffffffffffffffffffffffffffffffffffff16905090565b60008054906101000a900473ffffffffffffffffffffffffffffffffffffffff1681565b80600160008460030b60030b815260200190815260200160002060006101000a81548163ffffffff021916908360030b63ffffffff1602179055505050565b600073ffffffffffffffffffffffffffffffffffffffff82169050919050565b60006101df826101b4565b9050919050565b6101ef816101d4565b82525050565b600060208201905061020a60008301846101e6565b92915050565b600080fd5b60008160030b9050919050565b61022b81610215565b811461023657600080fd5b50565b60008135905061024881610222565b92915050565b6000806040838503121561026557610264610210565b5b600061027385828601610239565b925050602061028485828601610239565b915050925092905056fea264697066735822122047923c468c973c2241d2cd5088e4dcaa65e85b12d29db2021bbf7c3e3857215e64736f6c634300080d0033",
  "immutableReferences": {},
  "source": "// SPDX-License-Identifier: MIT\npragma solidity >=0.4.22 <0.9.0;\n\ncontract Election {\n  address public owner;\n  mapping(int32 => int32) votes;\n  bool ongoing = true;\n\n  constructor(address _owner) {\n    owner = _owner;\n  }\n\n  modifier isOwner() {\n    require(owner == msg.sender);\n    _;\n  }\n\n  function getOwner() public view returns(address) {\n    return owner;\n  }\n\n  function closeElection() public isOwner {\n    ongoing = false;\n  }\n\n  function vote(int32 voter, int32 option) public {\n    votes[voter] = option;\n  } \n}\n",
  "sourcePath": "C:\\Users\\PIYUSH\\Desktop\\final year project\\something\\server\\truffle\\contracts\\Election.sol",
  "compiler": {
    "name": "solc",
    "version": "0.8.13+commit.abaa5c0e.Emscripten.clang"
  },
  "schemaVersion": "3.4.6",
  "updatedAt": "2022-05-22T08:37:39.497Z",
  "devdoc": {
    "kind": "dev",
    "methods": {},
    "version": 1
  },
  "userdoc": {
    "kind": "user",
    "methods": {},
    "version": 1
  }
}