{
  "contractName": "ElectionFactory",
  "abi": [
    {
      "inputs": [],
      "name": "electionCount",
      "outputs": [
        {
          "internalType": "uint256",
          "name": "",
          "type": "uint256"
        }
      ],
      "stateMutability": "view",
      "type": "function",
      "constant": true
    },
    {
      "inputs": [
        {
          "internalType": "address",
          "name": "",
          "type": "address"
        }
      ],
      "name": "elections",
      "outputs": [
        {
          "internalType": "address",
          "name": "",
          "type": "address"
        }
      ],
      "stateMutability": "view",
      "type": "function",
      "constant": true
    },
    {
      "inputs": [
        {
          "internalType": "address",
          "name": "owner",
          "type": "address"
        }
      ],
      "name": "deploy",
      "outputs": [
        {
          "internalType": "address",
          "name": "",
          "type": "address"
        }
      ],
      "stateMutability": "nonpayable",
      "type": "function"
    }
  ],
  "bytecode": "0x60806040526000805534801561001457600080fd5b506107d1806100246000396000f3fe608060405234801561001057600080fd5b50600436106100415760003560e01c806324ddc760146100465780634c96a38914610076578063997d2830146100a6575b600080fd5b610060600480360381019061005b91906102a3565b6100c4565b60405161006d91906102df565b60405180910390f35b610090600480360381019061008b91906102a3565b6100f7565b60405161009d91906102df565b60405180910390f35b6100ae61022d565b6040516100bb9190610313565b60405180910390f35b60016020528060005260406000206000915054906101000a900473ffffffffffffffffffffffffffffffffffffffff1681565b6000808260405161010790610233565b61011191906102df565b604051809103906000f08015801561012d573d6000803e3d6000fd5b50905080600160008573ffffffffffffffffffffffffffffffffffffffff1673ffffffffffffffffffffffffffffffffffffffff16815260200190815260200160002060006101000a81548173ffffffffffffffffffffffffffffffffffffffff021916908373ffffffffffffffffffffffffffffffffffffffff1602179055506000808154809291906101c09061035d565b9190505550600160008473ffffffffffffffffffffffffffffffffffffffff1673ffffffffffffffffffffffffffffffffffffffff16815260200190815260200160002060009054906101000a900473ffffffffffffffffffffffffffffffffffffffff16915050919050565b60005481565b6103f6806103a683390190565b600080fd5b600073ffffffffffffffffffffffffffffffffffffffff82169050919050565b600061027082610245565b9050919050565b61028081610265565b811461028b57600080fd5b50565b60008135905061029d81610277565b92915050565b6000602082840312156102b9576102b8610240565b5b60006102c78482850161028e565b91505092915050565b6102d981610265565b82525050565b60006020820190506102f460008301846102d0565b92915050565b6000819050919050565b61030d816102fa565b82525050565b60006020820190506103286000830184610304565b92915050565b7f4e487b7100000000000000000000000000000000000000000000000000000000600052601160045260246000fd5b6000610368826102fa565b91507fffffffffffffffffffffffffffffffffffffffffffffffffffffffffffffffff820361039a5761039961032e565b5b60018201905091905056fe60806040526001600260006101000a81548160ff02191690831515021790555034801561002b57600080fd5b506040516103f63803806103f6833981810160405281019061004d91906100f6565b806000806101000a81548173ffffffffffffffffffffffffffffffffffffffff021916908373ffffffffffffffffffffffffffffffffffffffff16021790555050610123565b600080fd5b600073ffffffffffffffffffffffffffffffffffffffff82169050919050565b60006100c382610098565b9050919050565b6100d3816100b8565b81146100de57600080fd5b50565b6000815190506100f0816100ca565b92915050565b60006020828403121561010c5761010b610093565b5b600061011a848285016100e1565b91505092915050565b6102c4806101326000396000f3fe608060405234801561001057600080fd5b506004361061004c5760003560e01c80636c6c32d014610051578063893d20e81461005b5780638da5cb5b14610079578063cb25a01314610097575b600080fd5b6100596100b3565b005b610063610128565b60405161007091906101f5565b60405180910390f35b610081610151565b60405161008e91906101f5565b60405180910390f35b6100b160048036038101906100ac919061024e565b610175565b005b3373ffffffffffffffffffffffffffffffffffffffff1660008054906101000a900473ffffffffffffffffffffffffffffffffffffffff1673ffffffffffffffffffffffffffffffffffffffff161461010b57600080fd5b6000600260006101000a81548160ff021916908315150217905550565b60008060009054906101000a900473ffffffffffffffffffffffffffffffffffffffff16905090565b60008054906101000a900473ffffffffffffffffffffffffffffffffffffffff1681565b80600160008460030b60030b815260200190815260200160002060006101000a81548163ffffffff021916908360030b63ffffffff1602179055505050565b600073ffffffffffffffffffffffffffffffffffffffff82169050919050565b60006101df826101b4565b9050919050565b6101ef816101d4565b82525050565b600060208201905061020a60008301846101e6565b92915050565b600080fd5b60008160030b9050919050565b61022b81610215565b811461023657600080fd5b50565b60008135905061024881610222565b92915050565b6000806040838503121561026557610264610210565b5b600061027385828601610239565b925050602061028485828601610239565b915050925092905056fea264697066735822122047923c468c973c2241d2cd5088e4dcaa65e85b12d29db2021bbf7c3e3857215e64736f6c634300080d0033a26469706673582212209b86fe3aac842a06ed342132cd2f4610a410c2544527643a6c69d0f46451b96764736f6c634300080d0033",
  "immutableReferences": {},
  "source": "// SPDX-License-Identifier: MIT\npragma solidity >=0.4.22 <0.9.0;\n\nimport './Election.sol';\n\ncontract ElectionFactory {\n  uint256 public electionCount = 0;\n  mapping(address => address) public elections; \n\n  function deploy(address owner) public returns(address) { \n    address newElectionAddress = address(new Election(owner));\n    elections[owner] = newElectionAddress;\n    electionCount++;\n    return elections[owner];\n  }\n\n}\n",
  "sourcePath": "C:\\Users\\PIYUSH\\Desktop\\final year project\\something\\server\\truffle\\contracts\\ElectionFactory.sol",
  "compiler": {
    "name": "solc",
    "version": "0.8.13+commit.abaa5c0e.Emscripten.clang"
  },
  "schemaVersion": "3.4.6",
  "updatedAt": "2022-05-22T08:37:49.852Z",
  "networkType": "ethereum",
  "devdoc": {
    "kind": "dev",
    "methods": {},
    "version": 1
  },
  "userdoc": {
    "kind": "user",
    "methods": {},
    "version": 1
  }
}