{
  "contractName": "Election",
  "abi": [
    {
      "inputs": [
        {
          "internalType": "address",
          "name": "_owner",
          "type": "address"
        }
      ],
      "stateMutability": "nonpayable",
      "type": "constructor"
    },
    {
      "inputs": [],
      "name": "getOwner",
      "outputs": [
        {
          "internalType": "address",
          "name": "",
          "type": "address"
        }
      ],
      "stateMutability": "view",
      "type": "function"
    },
    {
      "inputs": [
        {
          "internalType": "int32",
          "name": "voter",
          "type": "int32"
        }
      ],
      "name": "getVoterStatus",
      "outputs": [
        {
          "internalType": "bool",
          "name": "",
          "type": "bool"
        }
      ],
      "stateMutability": "view",
      "type": "function"
    },
    {
      "inputs": [
        {
          "internalType": "int32",
          "name": "candidate",
          "type": "int32"
        }
      ],
      "name": "getVotesCount",
      "outputs": [
        {
          "internalType": "int32",
          "name": "",
          "type": "int32"
        }
      ],
      "stateMutability": "view",
      "type": "function"
    },
    {
      "inputs": [],
      "name": "closeElection",
      "outputs": [],
      "stateMutability": "nonpayable",
      "type": "function"
    },
    {
      "inputs": [
        {
          "internalType": "int32",
          "name": "voter",
          "type": "int32"
        },
        {
          "internalType": "int32",
          "name": "option",
          "type": "int32"
        }
      ],
      "name": "vote",
      "outputs": [
        {
          "internalType": "bool",
          "name": "",
          "type": "bool"
        }
      ],
      "stateMutability": "nonpayable",
      "type": "function"
    }
  ],
  "bytecode": "0x60806040526001600360006101000a81548160ff02191690831515021790555034801561002b57600080fd5b5060405161063a38038061063a833981810160405281019061004d91906100f6565b806000806101000a81548173ffffffffffffffffffffffffffffffffffffffff021916908373ffffffffffffffffffffffffffffffffffffffff16021790555050610123565b600080fd5b600073ffffffffffffffffffffffffffffffffffffffff82169050919050565b60006100c382610098565b9050919050565b6100d3816100b8565b81146100de57600080fd5b50565b6000815190506100f0816100ca565b92915050565b60006020828403121561010c5761010b610093565b5b600061011a848285016100e1565b91505092915050565b610508806101326000396000f3fe608060405234801561001057600080fd5b50600436106100575760003560e01c806339aacd5b1461005c57806355d809d71461008c5780636c6c32d0146100bc578063893d20e8146100c6578063cb25a013146100e4575b600080fd5b61007660048036038101906100719190610302565b610114565b604051610083919061033e565b60405180910390f35b6100a660048036038101906100a19190610302565b610144565b6040516100b39190610374565b60405180910390f35b6100c4610174565b005b6100ce6101e9565b6040516100db91906103d0565b60405180910390f35b6100fe60048036038101906100f991906103eb565b610212565b60405161010b9190610374565b60405180910390f35b6000600160008360030b60030b815260200190815260200160002060009054906101000a900460030b9050919050565b6000600260008360030b60030b815260200190815260200160002060009054906101000a900460ff169050919050565b3373ffffffffffffffffffffffffffffffffffffffff1660008054906101000a900473ffffffffffffffffffffffffffffffffffffffff1673ffffffffffffffffffffffffffffffffffffffff16146101cc57600080fd5b6000600360006101000a81548160ff021916908315150217905550565b60008060009054906101000a900473ffffffffffffffffffffffffffffffffffffffff16905090565b6000600360009054906101000a900460ff1661023157600090506102be565b60018060008460030b60030b815260200190815260200160002060008282829054906101000a900460030b610266919061045a565b92506101000a81548163ffffffff021916908360030b63ffffffff1602179055506001600260008560030b60030b815260200190815260200160002060006101000a81548160ff021916908315150217905550600190505b92915050565b600080fd5b60008160030b9050919050565b6102df816102c9565b81146102ea57600080fd5b50565b6000813590506102fc816102d6565b92915050565b600060208284031215610318576103176102c4565b5b6000610326848285016102ed565b91505092915050565b610338816102c9565b82525050565b6000602082019050610353600083018461032f565b92915050565b60008115159050919050565b61036e81610359565b82525050565b60006020820190506103896000830184610365565b92915050565b600073ffffffffffffffffffffffffffffffffffffffff82169050919050565b60006103ba8261038f565b9050919050565b6103ca816103af565b82525050565b60006020820190506103e560008301846103c1565b92915050565b60008060408385031215610402576104016102c4565b5b6000610410858286016102ed565b9250506020610421858286016102ed565b9150509250929050565b7f4e487b7100000000000000000000000000000000000000000000000000000000600052601160045260246000fd5b6000610465826102c9565b9150610470836102c9565b925081637fffffff0383136000831215161561048f5761048e61042b565b5b817fffffffffffffffffffffffffffffffffffffffffffffffffffffffff800000000383126000831216156104c7576104c661042b565b5b82820190509291505056fea2646970667358221220a4cd05dea9f6aaaf125d560b95f9352046fe2cd95cb5fec8d6e18eff07cc7c4464736f6c634300080d0033",
  "immutableReferences": {},
  "source": "// SPDX-License-Identifier: MIT\npragma solidity >=0.4.22 <0.9.0;\n\ncontract Election {\n  address owner;\n  mapping(int32 => int32) votes;\n  mapping(int32 => bool) voters;\n  bool ongoing = true;\n\n  constructor(address _owner) {\n    owner = _owner;\n  }\n\n  modifier isOwner() {\n    require(owner == msg.sender);\n    _;\n  }\n\n  function getOwner() public view returns(address) {\n    return owner;\n  }\n\n  function getVoterStatus(int32 voter) public view returns(bool) {\n    return voters[voter];\n  }\n\n  function getVotesCount(int32 candidate) public view returns(int32) {\n    return votes[candidate];\n  }\n\n  function closeElection() public isOwner {\n    ongoing = false;\n  }\n\n  function vote(int32 voter, int32 option) public returns(bool) {\n    if(!ongoing) {\n      return false;\n    }\n    votes[option] += 1;\n    voters[voter] = true;\n    return true;\n  } \n}\n",
  "sourcePath": "C:\\Users\\PIYUSH\\Desktop\\final year project\\something\\server\\truffle\\contracts\\Election.sol",
  "compiler": {
    "name": "solc",
    "version": "0.8.13+commit.abaa5c0e.Emscripten.clang"
  },
  "schemaVersion": "3.4.6",
  "updatedAt": "2022-06-29T17:29:47.312Z",
  "devdoc": {
    "kind": "dev",
    "methods": {},
    "version": 1
  },
  "userdoc": {
    "kind": "user",
    "methods": {},
    "version": 1
  }
}