{
  "contractName": "Auth",
  "abi": [
    {
      "inputs": [
        {
          "internalType": "bytes32",
          "name": "h",
          "type": "bytes32"
        },
        {
          "internalType": "uint8",
          "name": "v",
          "type": "uint8"
        },
        {
          "internalType": "bytes32",
          "name": "r",
          "type": "bytes32"
        },
        {
          "internalType": "bytes32",
          "name": "s",
          "type": "bytes32"
        }
      ],
      "name": "verify",
      "outputs": [
        {
          "internalType": "address",
          "name": "",
          "type": "address"
        }
      ],
      "stateMutability": "pure",
      "type": "function",
      "constant": true
    }
  ],
  "bytecode": "0x60806040526000805534801561001457600080fd5b5061028b806100246000396000f3fe608060405234801561001057600080fd5b506004361061002b5760003560e01c8063f1835db714610030575b600080fd5b61004a6004803603810190610045919061012f565b610060565b60405161005791906101d7565b60405180910390f35b6000600185858585604051600081526020016040526040516100859493929190610210565b6020604051602081039080840390855afa1580156100a7573d6000803e3d6000fd5b505050602060405103519050949350505050565b600080fd5b6000819050919050565b6100d3816100c0565b81146100de57600080fd5b50565b6000813590506100f0816100ca565b92915050565b600060ff82169050919050565b61010c816100f6565b811461011757600080fd5b50565b60008135905061012981610103565b92915050565b60008060008060808587031215610149576101486100bb565b5b6000610157878288016100e1565b94505060206101688782880161011a565b9350506040610179878288016100e1565b925050606061018a878288016100e1565b91505092959194509250565b600073ffffffffffffffffffffffffffffffffffffffff82169050919050565b60006101c182610196565b9050919050565b6101d1816101b6565b82525050565b60006020820190506101ec60008301846101c8565b92915050565b6101fb816100c0565b82525050565b61020a816100f6565b82525050565b600060808201905061022560008301876101f2565b6102326020830186610201565b61023f60408301856101f2565b61024c60608301846101f2565b9594505050505056fea2646970667358221220cea06a388812eb55ba94fd8a51113f489f005fbdbf4b461cc46d2dec261d497d64736f6c634300080d0033",
  "immutableReferences": {},
  "source": "// SPDX-License-Identifier: MIT\npragma solidity >=0.4.22 <0.9.0;\n\ncontract Auth {\n  uint256 usersCount = 0;\n  // struct User {\n\n  // }\n\n  function verify(bytes32 h, uint8 v, bytes32 r, bytes32 s) public pure returns (address) {\n    return ecrecover(h, v, r, s);\n  }\n}\n",
  "sourcePath": "C:\\Users\\PIYUSH\\Desktop\\final year project\\something\\backend\\contracts\\Auth.sol",
  "compiler": {
    "name": "solc",
    "version": "0.8.13+commit.abaa5c0e.Emscripten.clang"
  },
  "schemaVersion": "3.4.6",
  "updatedAt": "2022-04-05T20:01:00.469Z",
  "networkType": "ethereum",
  "devdoc": {
    "kind": "dev",
    "methods": {},
    "version": 1
  },
  "userdoc": {
    "kind": "user",
    "methods": {},
    "version": 1
  }
}